:0400000007EF00F016
:100008007D82A2ED10F08DEF2EF0310E0101476FC9
:10001800010E0101486F2DEF06F0250E01015C1954
:10002800D8B406D001015C51EBEC2EF02DEF06F0B0
:10003800000E01015B6F000E5A6F000E0101566F32
:10004800000E556F05D00101558501012F4B302B4E
:100058002FC1F6FF30C1F7FF0800F550300AD8B4B9
:10006800F2D72FC1F6FF30C1F7FF0800F55051EC69
:100078002EF0D8A09ED0000E01015B6F000E5A6FC3
:100088005AC100F15BC101F1000E0101036F0A0EB4
:10009800026FD7EC2DF000C15AF101C15BF1D00E0F
:1000A8000101396FFF0E01013A6F2FC1F6FF30C110
:1000B800F7FF0800F55001013B6F3C6B0101395116
:1000C80001013B2701013A5101013C2301013B5148
:1000D80001015A2701013C5101015B2301012F4B0A
:1000E800302B2FC1F6FF30C1F7FF0800F55051EC57
:1000F8002EF0D8A05ED0C4D70101568579D0010171
:10010800558F76D001015A510101455D01015B51BE
:1001180001014659D8B009D00101455101015A5F82
:100128000101465101015B5B09D0000E01015B6FC3
:10013800000E5A6F03D0200EEBEC2EF001015A0787
:10014800D8A05B0701015A29F6E101015B29D8B45F
:100158000BD0F1D743C1D9FF44C1DAFFDF50EBEC34
:100168002EF00101434B442B01014507D8A0460757
:1001780001014529EFE101014629D8B42DEF06F028
:10018800E9D747C1D9FF48C1DAFFDF5001015C6FE9
:10019800020E01014727000E48235C0E0101436F40
:1001A800010E0101446F000E0101466F010E456FFB
:1001B800A9D72FC1F6FF30C1F7FF01012F4B302B14
:1001C8000800F5CF5CF101015C51000AD8B41200B7
:1001D800630AD8B4D6D7070AD8B40AD0020AD8B462
:1001E8008BD70F0AD8B404D0110AD8B488D7D5D77A
:1001F800070E01015615D8B47AD3000E01014A6FD3
:10020800060E496F47C1D9FF48C1DAFFDECF57F163
:10021800DECF58F1DDCF59F1030E01014727000E5B
:100228004823010159AF11D057C1B7F058C1B8F0F0
:1002380059C1B9F00CEC2EF0B7C057F1B8C058F15D
:10024800B9C059F1030E01015513000E0101506F99
:10025800000E4F6F01015751010158110101591149
:10026800D8B49BD0820E0101396FFF0E01013A6F9D
:1002780057C13BF158C13CF159C13DF15AC13EF15A
:10028800100E06D00101D8903E333D333C333B334A
:10029800E82EF8D701013B510101392501014F6FC3
:1002A800000E01013A210101506F01014F07D8A04A
:1002B80050074FC100F150C101F1000E0101036F59
:1002C800030E026FD7EC2DF000C14FF101C150F1C0
:1002D8004FC1BDF050C1BEF0000E0001C06F0A0E44
:1002E800BF6FCCEC27F0BDC04FF1BEC050F101018B
:1002F80050AF04D001014F07D8A0500701014F515A
:10030800000893EC15F013C14BF114C14CF115C161
:100318004DF14BC104F14CC105F14DC106F157C176
:1003280007F158C108F159C109F1F8EC1FF004C1EF
:100338004BF105C14CF106C14DF14BC1B7F04CC1B1
:10034800B8F04DC1B9F0000E0001BA6F800E00017F
:10035800BB6F3F0E0001BC6F08EC27F00001D8B05E
:1003680005D001014F07D8A0500717D04BC1B7F0EF
:100378004CC1B8F04DC1B9F0000E0001BA6F200EA3
:100388000001BB6F410E0001BC6F08EC27F00001B3
:10039800D8A003D001014F4B502B01014ABF08D010
:1003A80001014A511DE10D0E0101495DD8B018D077
:1003B80057C11DF158C11EF159C11FF10101495121
:1003C800E2EC19F013C120F114C121F115C122F199
:1003D80038EC1BF01DC157F11EC158F11FC159F16E
:1003E800010150BF08D0010150512AE10A0E010154
:1003F8004F5DD8B025D001015751010158110101B5
:100408005911D8B463D057C11AF158C11BF159C159
:100418001CF14DEC21F001011A5101011B110101E0
:100428001C1101011D11D8A451D0010150BF4ED09B
:100438000101505105E1020E01014F5DD8A046D0DF
:100448004BC1B7F04CC1B8F04DC1B9F0700E000106
:10045800BA6F890E0001BB6F400E0001BC6F08EC3B
:1004680027F00001D8B003D00101F70E02D0010136
:10047800F80E4F27FF0E502301014F5193EC15F052
:1004880013C14BF114C14CF115C14DF157C1B7F06F
:1004980058C1B8F059C1B9F04BC1BAF04CC1BBF062
:1004A8004DC1BCF065EC1EF0B7C051F1B8C052F1B7
:1004B800B9C053F1BAC054F1000E0101576F000ED4
:1004C8000101586F000E0101596F33D057C11AF15D
:1004D80058C11BF159C11CF14DEC21F01AC151F161
:1004E8001BC152F11CC153F11DC154F157C129F16F
:1004F80058C12AF159C12BF151C1BFF052C1C0F006
:1005080053C1C1F054C1C2F049EC2AF0BFC02CF16C
:10051800C0C02DF1C1C02EF14BEC2CF029C157F110
:100528002AC158F12BC159F1000E0101506F000E7C
:100538004F6F010E01015C6F0A0E01015C19D8B4FE
:100548001ED001015C51040D7D0EF324F66EFE0EE3
:10055800F420F76E0900F5500101515D0900F550CE
:10056800010152590900F550010153590900F5508C
:1005780001015459D8A003D001015C2BDDD75CC11F
:1005880039F101013A6B39BF3A07010149510101BB
:10059800392701014A5101013A2301014F51010153
:1005A80039270101505101013A2301013951010153
:1005B8005A5F01013A5101015B5B01014951010197
:1005C8004A11D8B404D001015A07D8A05B07030E1A
:1005D800010155150101396F000E01015615010180
:1005E8003A6F0101395101013A11D8B404D001011F
:1005F8005A07D8A05B07010155A52DD0030E0101AC
:1006080055150101396F000E0101561501013A6FA8
:100618000101395101013A11D8B40BD02D0EEBEC80
:100628002EF007D0300EEBEC2EF001015A07D8A0BF
:100638005B0701015BBF74D001015B51F3E101016C
:100648005A05D8A06DD0EED7200EEBEC2EF00101A4
:100658005A07D8A05B0701015BBF07D001015B51B6
:10066800F3E101015A05D8B0EFD7030E0101551582
:100678000101396F000E0101561501013A6F0101A0
:10068800395101013A11D8B44BD02D0EEBEC2EF0B4
:1006980047D051C1B7F052C1B8F053C1B9F054C1F5
:1006A800BAF001015C51040D7D0EF324F66EFE0EC6
:1006B800F420F76E0900F5CFBBF00900F5CFBCF0C8
:1006C8000900F5CFBDF00A00F5CFBEF02BEC28F0FD
:1006D800B7C04BF1B8C04CF1B9C04DF1BAC04EF13A
:1006E8004BC100F14CC101F14DC102F14EC103F102
:1006F8000A0E0101046F000E056F000E066F000E52
:10070800076F31EC29F000C14BF101C14CF102C176
:100718004DF103C14EF101014B51300FEBEC2EF0BE
:1007280001015C0701015C29D8B408D0B2D7300EAA
:10073800EBEC2EF001014F07D8A05007010150BF84
:1007480007D001015051F3E101014F05D8B0EFD7AF
:1007580001014ABF0CD001014A5105E1090E01010E
:10076800495DD8A004D0080E01015C6F02D049C1D0
:100778005CF101015C510101495F000E01015CBFA0
:10078800FF0E01014A5B01015C510101D8B403D09D
:100798002E0EEBEC2EF001015C5193EC15F013C119
:1007A8003FF114C140F115C141F157C107F158C1DA
:1007B80008F159C109F13FC104F140C105F141C136
:1007C80006F1F8EC1FF004C11AF105C11BF106C1CE
:1007D8001CF14DEC21F01AC151F11BC152F11CC1A1
:1007E80053F11DC154F16ED051C1B7F052C1B8F0E8
:1007F80053C1B9F054C1BAF001015C51040D7D0E2A
:10080800F324F66EFE0EF420F76E0900F5CFBBF068
:100818000900F5CFBCF00900F5CFBDF00A00F5CF0F
:10082800BEF02BEC28F0B7C04BF1B8C04CF1B9C002
:100838004DF1BAC04EF14BC100F14CC101F14DC1AF
:1008480002F14EC103F10A0E0101046F000E056F9B
:10085800000E066F000E076F31EC29F000C14BF156
:1008680001C14CF102C14DF103C14EF101014B51DF
:10087800300FEBEC2EF051C100F152C101F153C120
:1008880002F154C103F101015C51040D7D0EF32402
:10089800F66EFE0EF420F76E0900F5CF04F109009C
:1008A800F5CF05F10900F5CF06F10A00F5CF07F1FC
:1008B80031EC29F000C151F101C152F102C153F1EB
:1008C80003C154F101015C0701015C29D8B408D0C7
:1008D8008BD7300EEBEC2EF001014907D8A04A0760
:1008E8000101495101014A11D8B4B3D1F2D701012C
:1008F80055BF23D047C1D9FF48C1DAFFDECF51F138
:10090800DDCF52F10101000E52BFFF0E536F546F3D
:10091800020E01014727000E4823010154AF6ED093
:10092800030E010155130101541F531F521F516D2E
:10093800000E52235323542361D047C1D9FF48C125
:10094800DAFFDECF39F1DDCF3AF139C151F13AC1E1
:1009580052F10101536B546B020E01014727000E3F
:1009680048234CD0010E01015C6F0A0E01015C198D
:10097800D8B44DD001015C51040D7D0EF324F66E00
:10098800FE0EF420F76E0900F5500101515D0900D3
:10099800F550010152590900F55001015359090058
:1009A800F55001015459D8A032D001015C2BDDD794
:1009B800010E01015C6F080E01015C19D8B427D043
:1009C80001015C51040DF30EF324F66EFE0EF420C3
:1009D800F76E0900F5500101515D0900F55001015C
:1009E80052590900F550010153590900F550010108
:1009F8005459D8A00CD001015C2BDDD70101555109
:100A0800800B000AD8B4AED7800AD8B4D1D7010178
:100A18005A5101015B11D8B414D0030E01015515C8
:100A28000101396F000E0101561501013A6F0101EC
:100A3800395101013A11D8B404D001015A07D8A09C
:100A48005B07800E01015CBF7F0E0101396F010158
:100A58005A5101015C5D01015B51800A010139595C
:100A6800D8B00BD001015C5101015A5F000E0101A1
:100A78005CBFFF0E01015B5B05D0000E01015B6FDF
:100A8800000E5A6F010155A521D0030E010155151D
:100A98000101396F000E0101561501013A6F01017C
:100AA800395101013A11D8B403D02D0EEBEC2EF0D8
:100AB80001015A5101015B11D8B42ED0300EEBEC74
:100AC8002EF001015A07D8A05B07F2D701015A514D
:100AD80001015B11D8B40DD0200EEBEC2EF0010112
:100AE8005A07D8A05B0701015A5101015B11D8A42C
:100AF800F3D7030E010155150101396F000E0101ED
:100B0800561501013A6F0101395101013A11D8B462
:100B180003D02D0EEBEC2EF001015C510101496F61
:100B28004A6B49BF4A078AD049C139F14AC13AF1EB
:100B38000101D89039373A370101D89039373A3717
:100B48007D0E01013925F66EFE0E3A21F76E090079
:100B5800F5CFBBF00900F5CFBCF00900F5CFBDF02B
:100B68000A00F5CFBEF051C1B7F052C1B8F053C179
:100B7800B9F054C1BAF02BEC28F0B7C000F1B8C0F6
:100B880001F1B9C002F1BAC003F10A0E0101046F04
:100B9800000E056F000E066F000E076F31EC29F08E
:100BA80001010051300F01015C6F44D051C1B7F011
:100BB80052C1B8F053C1B9F054C1BAF049C139F1C2
:100BC8004AC13AF10101D89039373A370101D89032
:100BD80039373A37F30E01013925F66EFE0E3A2100
:100BE800F76E0900F5CFBBF00900F5CFBCF009009E
:100BF800F5CFBDF00A00F5CFBEF02BEC28F00001D0
:100C0800B7510F0B0101426F01014251010D460E10
:100C1800F324F66EFF0EF420F76E0800F5CF5CF1B2
:100C280009D001015551800B000AD8B47DD7800A3C
:100C3800D8B4BCD701015C51EBEC2EF00101490797
:100C4800D8A04A0701014929ECE101014A29D8A4A1
:100C5800E8D72FC1F6FF30C1F7FF01012F4B302B2A
:100C68000800F5CF5CF101015C51D8B4120011EF16
:100C780000F0000E01017B6F000E7A6F000E00017C
:100C8800C86F000EC76FF2EC2DF0000E0101866FE1
:100C9800000E856F010186BF08D0010186511DE154
:100CA800320E0101855DD8B018D08B8A090E01017A
:100CB8006C6F4E0EE82EFED76C2FFCD700F08B9A87
:100CC800310E01016C6F0B0EE82EFED76C2FFCD78E
:100CD80000D00101854B862BDDD7170ED56EDE0EB1
:100CE800D76ED00ED66ED5508009D56EF28AD58EC5
:100CF800000E0101A06F000E9F6F95EC2CF0C00E46
:100D0800F3EC2EF0310E01012F6FFF0E0101306F51
:100D1800BAC131F1BBC132F1BCC133F1BDC134F14B
:100D2800C2C135F1C3C136F1C4C137F1C5C138F10B
:100D380009EC00F0000E01017D6F000E7C6F000EC3
:100D48000101706F000E6F6F000E01017F6F000EC2
:100D58007E6FC7C07EF1C8C07FF1D7EC2BF0EFECF7
:100D680021F00101295101012A11D8B406D0000E41
:100D780001017D6F010E7C6F2ED07EC16CF17FC1A9
:100D88006DF101016C1F6D1F6C4B6D2B0001C7517C
:100D980001016C270001C85101016D2301016DBFDC
:100DA8000ED001016D5105E1090E01016C5DD8A05D
:100DB80006D0000E0101706F010E6F6F0CD0B40EDB
:100DC8000001C7190001C811D8A4C9D7000E010134
:100DD800A06F010E9F6F01019F050101A011D8B4FA
:100DE800CFD101017C5101017D11D8B4A4D0000EEE
:100DF8000101886F000E876F010188BF08D0900E2F
:100E08000101875D010E01018859D8B00DD01A0E75
:100E180001016C6FF80EE82EFED76C2FFCD700F09E
:100E28000101874B882BE8D7000E0101A66F000E41
:100E38000101A76F000E0101A86F000E01018A6F62
:100E4800000E896F01018ABF08D001018A5148E16B
:100E5800640E0101895DD8B043D0000E3BEC2EF042
:100E6800000E0001C06FEC0EBF6FC4500001BE6FD2
:100E7800BD6BCCEC27F0BDC000F1BEC001F1DBECCE
:100E88002CF000C104F101C105F102C106F1000E08
:100E98000101076FA00E0101086F400E0101096FE3
:100EA800F8EC1FF004C171F105C172F106C173F1CC
:100EB800A6C11DF1A7C11EF1A8C11FF171C120F182
:100EC80072C121F173C122F138EC1BF01DC1A6F1EA
:100ED8001EC1A7F11FC1A8F10101894B8A2BB2D706
:100EE800A6C103F1A7C104F1A8C105F1000E0101D3
:100EF800066F7A0E0101076F440E0101086FA7EC17
:100F080020F003C1A6F104C1A7F105C1A8F1A6C14B
:100F1800B7F0A7C1B8F0A8C1B9F0000E0001BA6FC8
:100F2800100E0001BB6F420E0001BC6F08EC27F0E9
:100F38000001D8A025D10001C8BF57D00001C85171
:100F480005E1AE0E0001C75DD8A04FD0000E01012B
:100F5800816F000E806F20D0000E01018C6F000E93
:100F68008B6F01018CBF08D001018C5112E1640E16
:100F780001018B5DD8B00DD01A0E01016C6FF80E0F
:100F8800E82EFED76C2FFCD700F001018B4B8C2B81
:100F9800E8D70101804B812BC7C06CF1C8C06DF147
:100FA80001016C1F6D1F6C4B6D2BB40E01016C277A
:100FB800000E6D230101805101016C5D01016D512D
:100FC800800A01016E6F01018151800A01016E5989
:100FD800D8B0C2D7000E0001C86FB40EC76F000E9C
:100FE8000101A06F010E9F6FCBD0AFEC2BF08B8E61
:100FF800000E01018E6F000E8D6F01018EBF08D0AB
:10100800F40E01018D5D010E01018E59D8B00DD08D
:101018001A0E01016C6FF80EE82EFED76C2FFCD764
:1010280000F001018D4B8E2BE8D7000E0101906F67
:10103800000E8F6F010190BF08D00101905118E197
:10104800C80E01018F5DD8B013D01A0E01016C6F64
:10105800F80EE82EFED76C2FFCD700F001018F4B5D
:10106800902B010190BFF1D70101905101E1E8D720
:101078008B9E000E0101A96F000E0101AA6F000EE0
:101088000101AB6F000E0101926F000E916F01011B
:1010980092BF08D00101925148E1640E0101915DAF
:1010A800D8B043D0000E3BEC2EF0000E0001C06F0C
:1010B800EC0EBF6FC4500001BE6FBD6BCCEC27F0C7
:1010C800BDC000F1BEC001F1DBEC2CF000C104F1A1
:1010D80001C105F102C106F1000E0101076FA00E62
:1010E8000101086F400E0101096FF8EC1FF004C1FF
:1010F80074F105C175F106C176F1A9C11DF1AAC146
:101108001EF1ABC11FF174C120F175C121F176C187
:1011180022F138EC1BF01DC1A9F11EC1AAF11FC1B3
:10112800ABF10101914B922BB2D7A9C103F1AAC12E
:1011380004F1ABC105F1000E0101066F7A0E010141
:10114800076F440E0101086FA7EC20F003C1A9F155
:1011580004C1AAF105C1ABF1A9C1B7F0AAC1B8F0A1
:10116800ABC1B9F0000E0001BA6F100E0001BB6FE1
:10117800420E0001BC6F08EC27F00001D8B0E9D599
:1011880014EC2FF001019F050101A011D8B493D2EE
:10119800000E0101946F000E936F010194BF08D0F7
:1011A8000101945112E1C80E0101935DD8B00DD030
:1011B8001A0E01016C6FF80EE82EFED76C2FFCD7C3
:1011C80000F00101934B942BE8D7020E3BEC2EF074
:1011D800000E0001C06FEC0EBF6FC4500001BE6F5F
:1011E800BD6BCCEC27F0BDC000F1BEC001F1DBEC5B
:1011F8002CF000C104F101C105F102C106F1000E95
:101208000101076FA00E0101086F400E0101096F6F
:10121800F8EC1FF004C182F105C183F106C184F125
:10122800010E3BEC2EF0000E0001C06FEC0EBF6FFC
:10123800C4500001BE6FBD6BCCEC27F0BDC000F1FF
:10124800BEC001F1DBEC2CF000C104F101C105F1D5
:1012580002C106F1000E0101076FA00E0101086F1F
:10126800400E0101096FF8EC1FF004C1A3F105C19C
:10127800A4F106C1A5F1000E0101AC6F000E010139
:10128800AD6F000E0101AE6F000E0101966F000EEA
:10129800956F010196BF08D00101965148E1640E8F
:1012A8000101955DD8B043D0000E3BEC2EF0000E46
:1012B8000001C06FEC0EBF6FC4500001BE6FBD6B64
:1012C800CCEC27F0BDC000F1BEC001F1DBEC2CF086
:1012D80000C104F101C105F102C106F1000E0101CE
:1012E800076FA00E0101086F400E0101096FF8ECAD
:1012F8001FF004C177F105C178F106C179F1ACC1DD
:101308001DF1ADC11EF1AEC11FF177C120F178C149
:1013180021F179C122F138EC1BF01DC1ACF11EC1DD
:10132800ADF11FC1AEF10101954B962BB2D7ACC1FF
:1013380003F1ADC104F1AEC105F1000E0101066F64
:101348007A0E0101076F440E0101086FA7EC20F027
:1013580003C1ACF104C1ADF105C1AEF1000E00014D
:10136800B76F0A0E0001B86F420E0001B96FACC129
:10137800BAF0ADC1BBF0AEC1BCF008EC27F000017B
:10138800D8B046D082C1B7F083C1B8F084C1B9F0F3
:10139800000E0001BA6FC80E0001BB6FC20E00013B
:1013A800BC6F08EC27F00001D8A014D0000E000193
:1013B800B76F960E0001B86F430E0001B96FA3C155
:1013C800BAF0A4C1BBF0A5C1BCF008EC27F000013D
:1013D800D8B00FD0010E0101BA250101BA6F000E75
:1013E8000101BB210101BB6F000E0101A26F000EBC
:1013F80068D0010E0101BC250101BC6F000E01017E
:10140800BD210101BD6F000E0101A26F010E59D06F
:10141800000E0001B76FC80E0001B86F420E000140
:10142800B96F82C1BAF083C1BBF084C1BCF008ECCB
:1014380027F00001D8B037D0000E0001B76F8C0E2E
:101448000001B86F430E0001B96FA3C1BAF0A4C17F
:10145800BBF0A5C1BCF008EC27F00001D8A014D05F
:10146800A3C1B7F0A4C1B8F0A5C1B9F0000E00013E
:10147800BA6F5C0E0001BB6F430E0001BC6F08EC35
:1014880027F00001D8B00FD0010E0101C2250101DB
:10149800C26F000E0101C3210101C36F000E0101DB
:1014A800A26F020E0ED0010E0101C4250101C46F06
:1014B800000E0101C5210101C56F000E0101A26FD7
:1014C800030EA16F7AC16CF17BC16DF101016C1F34
:1014D8006D1F6C4B6D2B0101A15101016C250101A0
:1014E800AF6F0101A25101016D210101B06F030E1F
:1014F8000101AF190101B011D8B407D00101AF291A
:1015080007E10101B029D8A403D071EC2CF021D057
:10151800020E0101AF190101B011D8B408D0FE0EB6
:101528000101AF1907E10101B029D8A403D025ECC6
:101538002CF00FD00101AF050101B011D8B407D0CC
:10154800FD0E0101AF1905E10101B029D8B4FFEC86
:101558002BF0A1C17AF1A2C17BF1000E0101986FB5
:10156800000E976F010198BF08D00101985112E150
:10157800320E0101975DD8B00DD01A0E01016C6FC3
:10158800F80EE82EFED76C2FFCD700F00101974B20
:10159800982BE8D7000E01019A6F000E996F010190
:1015A8009ABF08D001019A511DE1320E0101995DDF
:1015B800D8B018D08B8A060E01016C6F300EE82E59
:1015C800FED76C2FFCD700F08B9A410E01016C6F8F
:1015D800EE0EE82EFED76C2FFCD700F00101994BD8
:1015E8009A2BDDD7000E01019C6F000E9B6F010145
:1015F8009CBF08D001019C5112E1C80E01019B5DFE
:10160800D8B00DD01A0E01016C6FF80EE82EFED777
:101618006C2FFCD700F001019B4B9C2BE8D7000EE8
:1016280001019E6F000E9D6F01019EBF08D0010150
:101638009E511DE1320E01019D5DD8B018D08B8AF4
:10164800090E01016C6F4E0EE82EFED76C2FFCD7E9
:1016580000F08B9A310E01016C6F0B0EE82EFED74D
:101668006C2FFCD700D001019D4B9E2BDDD70101CB
:10167800BC510101BA2501016C6F0101BD51010185
:10168800BB2101016D6F0101C25101016C270101EC
:10169800C35101016D230101C45101016C270101EE
:1016A800C55101016D230A0E01016C1901016D116B
:1016B800D8A481EF06F0D59EF29A000E0001B86F0B
:1016C800010EB76FC2C1B9F0C3C1BAF066EC2EF013
:1016D800BAC15DF1BBC15EF1BCC15FF1BDC160F1D2
:1016E800C2C161F1C3C162F1C4C163F1C5C164F192
:1016F800C7C065F1C8C066F1A2EC26F01200420E20
:10170800566E000E576E94EF10F0250E6B18D8B475
:1017180005D06B50FBEC2EF094EF10F0000E6A6EC3
:10172800000E696E000E656E000E646E03D0648450
:10173800404A412A40C0F6FF41C0F7FF0800F55073
:10174800300AD8B4F4D740C0F6FF41C0F7FF08000C
:10175800F550D2EC2EF0D8A079D0000E6A6E000EAB
:10176800696E69C00FF06AC010F0000E126E0A0EA2
:10177800116E7AEC2EF00FC069F010C06AF0D00E2E
:10178800486EFF0E496E40C0F6FF41C0F7FF0800E3
:10179800F5504A6E4B6A48504A2649504B224A50E7
:1017A80069264B506A22404A412A40C0F6FF41C090
:1017B800F7FF0800F550D2EC2EF0D8A047D0D1D7CB
:1017C800658461D0648E5FD06950545C6A50555806
:1017D800D8B005D05450695E55506A5A08D0000EEA
:1017E8006A6E000E696E03D0200EFBEC2EF06906BF
:1017F800D8A06A066928F8E16A28D8B40AD0F4D7CC
:1018080052C0D9FF53C0DAFFDF50FBEC2EF0524A2A
:10181800532A5406D8A055065428F2E15528D8B4BE
:1018280094EF10F0EDD756C0D9FF57C0DAFFDF505C
:101838006B6E020E5626000E57226B0E526E000E6D
:10184800536E000E556E010E546EBED740C0F6FFA3
:1018580041C0F7FF404A412A0800F5CF6BF06B50B2
:10186800000AD8B41200630AD8B4DDD7070AD8B47E
:101878000AD0020AD8B4A4D70F0AD8B404D0110ADF
:10188800D8B4A0D7DAD7070E6514D8B4ECD2000EB6
:10189800596E060E586E56C0D9FF57C0DAFFDECF14
:1018A80066F0DECF67F0DDCF68F0030E5626000E37
:1018B800572268AE10D066C001F067C002F068C059
:1018C80003F0B1EC2EF001C066F002C067F003C06F
:1018D80068F0030E6412000E5F6E000E5E6E6650B6
:1018E80067106810D8B483D0820E486EFF0E496E18
:1018F80066C04AF067C04BF068C04CF069C04DF054
:10190800100E05D0D8904D324C324B324A32E82E68
:10191800F9D74A5048245E6E000E49205F6E5E0675
:10192800D8A05F065EC00FF05FC010F0000E126E08
:10193800030E116E7AEC2EF00FC05EF010C05FF04F
:101948005EC007F05FC008F0000E0A6E0A0E096E4E
:10195800C6EC29F007C05EF008C05FF05FAE03D0A8
:101968005E06D8A05F065E500008EAEC17F024C0B7
:101978005AF025C05BF026C05CF05AC015F05BC079
:1019880016F05CC017F066C018F067C019F068C0A0
:101998001AF03BEC25F015C05AF016C05BF017C0E2
:1019A8005CF05AC001F05BC002F05CC003F0000EAE
:1019B800046E800E056E3F0E066E7EEC29F0D8B0E0
:1019C80004D05E06D8A05F0612D05AC001F05BC0F2
:1019D80002F05CC003F0000E046E200E056E410E8E
:1019E800066E7EEC29F0D8A002D05E4A5F2A59BE66
:1019F80006D059501BE10D0E585CD8B017D066C000
:101A08002EF067C02FF068C030F058506CEC1CF016
:101A180024C031F025C032F026C033F08FEC1DF021
:101A28002EC066F02FC067F030C068F05FBE06D0E9
:101A38005F501EE10A0E5E5CD8B01AD0665067107F
:101A48006810D8B451D066C024F067C025F068C0CB
:101A580026F0B5EC25F02450251026102710D8B410
:101A68005FBE42D05F5004E1020E5E5CD8A03CD05D
:101A78005AC001F05BC002F05CC003F0700E046E47
:101A8800890E056E400E066E7EEC29F0D8B002D0A5
:101A9800F70E01D0F80E5E26FF0E5F225E50EAECCC
:101AA80017F024C05AF025C05BF026C05CF066C071
:101AB80001F067C002F068C003F05AC004F05BC0D0
:101AC80005F05CC006F08DEC22F001C060F002C0A9
:101AD80061F003C062F004C063F0000E666E000E91
:101AE800676E000E686E32D066C024F067C025F0BD
:101AF80068C026F0B5EC25F024C060F025C061F080
:101B080026C062F027C063F066C03AF067C03BF0B9
:101B180068C03CF060C009F061C00AF062C00BF018
:101B280063C00CF056EC2BF009C03DF00AC03EF043
:101B38000BC03FF01DEC2DF03AC066F03BC067F0DB
:101B48003CC068F0000E5F6E000E5E6E010E6B6E9C
:101B58000A0E6B18D8B418D06B50040D7D0EF32400
:101B6800F66EFE0EF420F76E0900F550605C090071
:101B7800F55061580900F55062580900F55063584E
:101B8800D8A002D06B2AE4D76BC048F0496A48BE97
:101B9800490658504826595049225E5048265F50F9
:101BA80049224850695E49506A5A58505910D8B469
:101BB80003D06906D8A06A06030E6414486E000EA6
:101BC8006514496E48504910D8B403D06906D8A0A6
:101BD8006A0664A422D0030E6414486E000E6514CD
:101BE800496E48504910D8B40AD02D0EFBEC2EF09F
:101BF80006D0300EFBEC2EF06906D8A06A066ABE45
:101C080065D06A50F6E16904D8A060D0F2D7200EFA
:101C1800FBEC2EF06906D8A06A066ABE05D06A50A9
:101C2800F6E16904D8B0F3D7030E6414486E000EC9
:101C38006514496E48504910D8B448D02D0EFBECB5
:101C48002EF044D060C001F061C002F062C003F021
:101C580063C004F06B50040D7D0EF324F66EFE0E87
:101C6800F420F76E0900F5CF05F00900F5CF06F06E
:101C78000900F5CF07F00A00F5CF08F008EC2AF0C4
:101C880001C05AF002C05BF003C05CF004C05DF014
:101C98005AC00EF05BC00FF05CC010F05DC011F0D0
:101CA8000A0E126E000E136E000E146E000E156EE4
:101CB800F3EC2AF00EC05AF00FC05BF010C05CF0D5
:101CC80011C05DF05A50300FFBEC2EF06B066B28FC
:101CD800D8B407D0B7D7300EFBEC2EF05E06D8A0EC
:101CE8005F065FBE05D05F50F6E15E04D8B0F3D75B
:101CF80059BE09D0595004E1090E585CD8A003D048
:101D0800080E6B6E02D058C06BF06B50585E000E18
:101D18006BBEFF0E595A6B50D8B403D02E0EFBEC95
:101D28002EF06B50EAEC17F024C04EF025C04FF0AF
:101D380026C050F066C018F067C019F068C01AF0E5
:101D48004EC015F04FC016F050C017F03BEC25F010
:101D580015C024F016C025F017C026F0B5EC25F004
:101D680024C060F025C061F026C062F027C063F08F
:101D78006AD060C001F061C002F062C003F063C0C5
:101D880004F06B50040D7D0EF324F66EFE0EF42065
:101D9800F76E0900F5CF05F00900F5CF06F0090048
:101DA800F5CF07F00A00F5CF08F008EC2AF001C0DB
:101DB8005AF002C05BF003C05CF004C05DF05AC08A
:101DC8000EF05BC00FF05CC010F05DC011F00A0EA1
:101DD800126E000E136E000E146E000E156EF3ECEC
:101DE8002AF00EC05AF00FC05BF010C05CF011C0B2
:101DF8005DF05A50300FFBEC2EF060C00EF061C061
:101E08000FF062C010F063C011F06B50040D7D0E2E
:101E1800F324F66EFE0EF420F76E0900F5CF12F0EB
:101E28000900F5CF13F00900F5CF14F00A00F5CF3B
:101E380015F0F3EC2AF00EC060F00FC061F010C08E
:101E480062F011C063F06B066B28D8B407D091D745
:101E5800300EFBEC2EF05806D8A0590658505910F1
:101E6800D8B45ED1F5D764BE1ED056C0D9FF57C0CE
:101E7800DAFFDECF60F0DDCF61F0000E61BEFF0E4D
:101E8800626E636E020E5626000E572263AE5AD05B
:101E9800030E6412631E621E611E606C000E6122D6
:101EA800622263224FD056C0D9FF57C0DAFFDECF77
:101EB80048F0DDCF49F048C060F049C061F0626A7F
:101EC800636A020E5626000E57223CD0010E6B6E36
:101ED8000A0E6B18D8B43ED06B50040D7D0EF32457
:101EE800F66EFE0EF420F76E0900F550605C0900EE
:101EF800F55061580900F55062580900F5506358CB
:101F0800D8A028D06B2AE4D7010E6B6E080E6B1888
:101F1800D8B420D06B50040DF30EF324F66EFE0EE9
:101F2800F420F76E0900F550605C0900F55061581F
:101F38000900F55062580900F5506358D8A00AD036
:101F48006B2AE4D76450800B000AD8B4BFD7800A44
:101F5800D8B4DAD769506A10D8B40DD0030E641417
:101F6800486E000E6514496E48504910D8B403D025
:101F78006906D8A06A06800E6BBE7F0E486E69504F
:101F88006B5C6A50800A4858D8B007D06B50695EBD
:101F9800000E6BBEFF0E6A5A04D0000E6A6E000E69
:101FA800696E64A418D0030E6414486E000E65149C
:101FB800496E48504910D8B403D02D0EFBEC2EF0D2
:101FC80069506A10D8B422D0300EFBEC2EF06906A6
:101FD800D8A06A06F5D769506A10D8B40AD0200E7E
:101FE800FBEC2EF06906D8A06A0669506A10D8A4DE
:101FF800F6D7030E6414486E000E6514496E4850F7
:102008004910D8B403D02D0EFBEC2EF06B50586E4F
:10201800596A58BE59067CD058C048F059C049F092
:10202800D89048364936D890483649367D0E4824E7
:10203800F66EFE0E4920F76E0900F5CF05F009008F
:10204800F5CF06F00900F5CF07F00A00F5CF08F044
:1020580060C001F061C002F062C003F063C004F028
:1020680008EC2AF001C00EF002C00FF003C010F017
:1020780004C011F00A0E126E000E136E000E146EDC
:10208800000E156EF3EC2AF00E50300F6B6E3DD03B
:1020980060C001F061C002F062C003F063C004F0E8
:1020A80058C048F059C049F0D89048364936D890B9
:1020B80048364936F30E4824F66EFE0E4920F76E70
:1020C8000900F5CF05F00900F5CF06F00900F5CFB6
:1020D80007F00A00F5CF08F008EC2AF001500F0BC2
:1020E800516E5150010D460EF324F66EFF0EF4208A
:1020F800F76E0800F5CF6BF008D06450800B000A2B
:10210800D8B48AD7800AD8B4C3D76B50FBEC2EF06A
:102118005806D8A059065828F0E15928D8A4EDD770
:1021280040C0F6FF41C0F7FF404A412A0800F5CFFA
:102138006BF06B50D8B4120089EF0BF00600FACFA1
:102148006DF0FBCF6EF0E9CF6FF0EACF70F0E1CF22
:1021580071F0E2CF72F0D9CF73F0DACF74F0F3CF29
:1021680075F0F4CF76F0F6CF77F0F7CF78F0F8CFB8
:1021780079F0F5CF7AF0F0A04DEF15F081380F0B1C
:102188000F0B0001B66FB8EC2CF00001B651010D31
:10219800130EF324F66EFF0EF420F76E0800F550C8
:1021A800300AD8A42BD0EE0E406EFF0E416E83ECA1
:1021B8000BF0000E0001956F000E946F000195BFA3
:1021C80008D00001955117E1C80E0001945DD8B000
:1021D80012D01A0E6C6EF80EE82EFED76C2EFCD7B5
:1021E80000D00001944B952B000195BFF2D7000158
:1021F800955101E1E9D7FF004BEF15F00001B65109
:10220800010D130EF324F66EFF0EF420F76E08008E
:10221800F550310AD8A407D0000E0101C16F010E94
:10222800C06F4BEF15F00001B651010D130EF324EA
:10223800F66EFF0EF420F76E0800F550320AD8A4A7
:1022480028D0730E406EFF0E416E83EC0BF0000E2B
:102258000001976F000E966F000197BF08D000012C
:10226800975111E1640E0001965DD8B00CD01A0E9A
:102278006C6EF80EE82EFED76C2EFCD700D000014D
:10228800964B972BE9D7000E0101BF6F010EBE6F69
:10229800FED30001B651010D130EF324F66EFF0EA6
:1022A800F420F76E0800F550330AD8A432D0BFECFA
:1022B80024F033C092F034C093F000019251000131
:1022C8009311D8B4F4D7D10E406EFF0E416E92C070
:1022D80042F093C043F083EC0BF0000E0001996FBD
:1022E800000E986F000199BF08D02C0E0001985D70
:1022F800010E00019959D8B0CAD31A0E6C6EF80EA7
:10230800E82EFED76C2EFCD700D00001984B992BF5
:10231800E9D70001B651010D130EF324F66EFF0E36
:10232800F420F76E0800F550340AD8A496D0000EB1
:102338000001B06F000E0001B16F000E0001B26F16
:10234800000E00019B6F000E9A6F00019BBF08D022
:1023580000019B5143E1640E00019A5DD8B03ED064
:10236800000E9FEC2EF0000E0A6EEC0E096EC450A3
:10237800086E076AC6EC29F007C00FF008C010F015
:10238800BBEC2DF00FC015F010C016F011C017F0FF
:10239800000E186EA00E196E400E1A6E3BEC25F05A
:1023A80015C080F016C081F017C082F0B0C02EF0C2
:1023B800B1C02FF0B2C030F080C031F081C032F02F
:1023C80082C033F08FEC1DF02EC0B0F02FC0B1F0FA
:1023D80030C0B2F000019A4B9B2BB7D7B0C013F0B6
:1023E800B1C014F0B2C015F0000E166E7A0E176E5A
:1023F800440E186E2FEC26F013C0B0F014C0B1F0E4
:1024080015C0B2F0800E01EC2FF0930E406EFF0E57
:10241800416EB0C042F0B1C043F0B2C044F083ECAA
:102428000BF0000E00019D6F000E9C6F00019DBF18
:1024380008D02C0E00019C5D010E00019D59D8B0FA
:1024480026D31A0E6C6EF80EE82EFED76C2EFCD72B
:1024580000D000019C4B9D2BE9D70001B651010D1E
:10246800130EF324F66EFF0EF420F76E0800F550F5
:10247800350AD8A454D0000E00019F6F000E9E6F3D
:1024880000019FBF08D000019F511BE1320E0001DF
:102498009E5DD8B016D08B8A060E6C6E300EE82E74
:1024A800FED76C2EFCD700D08B9A410E6C6EEE0EC8
:1024B800E82EFED76C2EFCD700D000019E4B9F2B38
:1024C800DFD7000E0001A16F000EA06F0001A1BFB1
:1024D8000AD00001A15106E1320E0001A05DD8B07A
:1024E800D6D201D0D4D28B8A090E6C6E4E0EE82E4D
:1024F800FED76C2EFCD700D08B9A310E6C6E0C0E6A
:10250800E82EFED76C2EFCD70001A04BA12B0001B2
:10251800A1BFE9D70001A15101E1DED7B8D200017E
:10252800B651010D130EF324F66EFF0EF420F76E6C
:102538000800F550360AD8A403D07DEC2DF0A7D2B8
:102548000001B651010D130EF324F66EFF0EF420B0
:10255800F76E0800F550370AD8A403D05DEC2DF0CB
:1025680096D20001B651010D130EF324F66EFF0E3C
:10257800F420F76E0800F550380AD8A403D03DECD3
:102588002DF085D20001B651010D130EF324F66E1D
:10259800FF0EF420F76E0800F550390AD8A403D0CE
:1025A80017EC2FF074D20001B651010D130EF3246D
:1025B800F66EFF0EF420F76E0800F550410AD8A415
:1025C80051D0010E9FEC2EF0000E0A6EEC0E096E33
:1025D800C450086E076AC6EC29F007C00FF008C09F
:1025E80010F0BBEC2DF00FC015F010C016F011C0A4
:1025F80017F0000E186EA00E196E400E1A6E3BEC06
:1026080025F015C083F016C084F017C085F0800E41
:1026180001EC2FF09F0E406EFF0E416E83C042F01A
:1026280084C043F085C044F083EC0BF0000E000139
:10263800A36F000EA26F0001A3BF08D02C0E0001EB
:10264800A25D010E0001A359D8B021D21A0E6C6EFA
:10265800F80EE82EFED76C2EFCD700D00001A24B56
:10266800A32BE9D70001B651010D130EF324F66E22
:10267800FF0EF420F76E0800F550420AD8A451D096
:10268800020E9FEC2EF0000E0A6EEC0E096EC4507E
:10269800086E076AC6EC29F007C00FF008C010F0F2
:1026A800BBEC2DF00FC015F010C016F011C017F0DC
:1026B800000E186EA00E196E400E1A6E3BEC25F037
:1026C80015C086F016C087F017C088F0800E01ECA0
:1026D8002FF0F40E406EFF0E416E86C042F087C0A8
:1026E80043F088C044F083EC0BF0000E0001A56FA6
:1026F800000EA46F0001A5BF08D02C0E0001A45D38
:10270800010E0001A559D8B0C2D11A0E6C6EF80E90
:10271800E82EFED76C2EFCD700D00001A44BA52BC9
:10272800E9D70001B651010D130EF324F66EFF0E22
:10273800F420F76E0800F550440AD8A488D1020E98
:102748009FEC2EF0000E0A6EEC0E096EC450086E57
:10275800076AC6EC29F007C00FF008C010F0BBEC00
:102768002DF00FC015F010C016F011C017F0000EB4
:10277800186EA00E196E400E1A6E3BEC25F015C0AF
:10278800AAF016C0ABF017C0ACF0010E9FEC2EF00B
:10279800000E0A6EEC0E096EC450086E076AC6EC8D
:1027A80029F007C00FF008C010F0BBEC2DF00FC0E7
:1027B80015F010C016F011C017F0000E186EA00E1C
:1027C800196E400E1A6E3BEC25F015C0ADF016C020
:1027D800AEF017C0AFF0000E0001B36F000E00019D
:1027E800B46F000E0001B56F000E0001A76F000E58
:1027F800A66F0001A7BF08D0E80E0001A65D030E72
:102808000001A759D8B03ED0000E9FEC2EF0000E64
:102818000A6EEC0E096EC450086E076AC6EC29F001
:1028280007C00FF008C010F0BBEC2DF00FC015F07A
:1028380010C016F011C017F0000E186EA00E196E19
:10284800400E1A6E3BEC25F015C089F016C08AF0D0
:1028580017C08BF0B3C02EF0B4C02FF0B5C030F065
:1028680089C031F08AC032F08BC033F08FEC1DF094
:102878002EC0B3F02FC0B4F030C0B5F00001A64BA5
:10288800A72BB7D7B3C013F0B4C014F0B5C015F078
:10289800400E166E1C0E176E460E186E2FEC26F0A4
:1028A80013C0B3F014C0B4F015C0B5F0C00E01ECFD
:1028B8002FF0ADC024F0AEC025F0AFC026F0B5ECC7
:1028C80025F024C08CF025C08DF0000E186E200E67
:1028D800196E410E1A6EB3C015F0B4C016F0B5C02B
:1028E80017F03BEC25F015C024F016C025F017C0F2
:1028F80026F0B5EC25F024C08EF025C08FF0AAC0D4
:1029080024F0ABC025F0ACC026F0B5EC25F024C00F
:1029180090F025C091F0D40E406EFF0E416E8EC02F
:1029280042F08FC043F08CC044F08DC045F090C099
:1029380046F091C047F083EC0BF0800E01EC2FF0CD
:10294800000E016E1C0E026E420E036EB3C004F040
:10295800B4C005F0B5C006F07EEC29F0D8B02ED092
:10296800AAC001F0ABC002F0ACC003F0000E046EC8
:10297800C80E056EC20E066E7EEC29F0D8A010D0E7
:10298800000E016EAF0E026E430E036EADC004F072
:10299800AEC005F0AFC006F07EEC29F0D8B007D085
:1029A800DD0E406EFF0E416E83EC0BF034D0AB0EA3
:1029B800406EFF0E416E83EC0BF02DD0000E016EC1
:1029C800C80E026E420E036EAAC004F0ABC005F03A
:1029D800ACC006F07EEC29F0D8B017D0ADC001F03D
:1029E800AEC002F0AFC003F0000E046E960E056E86
:1029F800430E066E7EEC29F0D8A007D0E60E406E96
:102A0800FF0E416E83EC0BF006D0B70E406EFF0E42
:102A1800416E83EC0BF0000E0001A96F000EA86F49
:102A28000001A9BF08D02C0E0001A85D010E00010D
:102A3800A959D8B02CD01A0E6C6EF80EE82EFED715
:102A48006C2EFCD700D00001A84BA92BE9D70001B8
:102A5800B651010D130EF324F66EFF0EF420F76E37
:102A68000800F5502A0AD8A403D09CEC2DF00FD00A
:102A78000001B651010D130EF324F66EFF0EF4207B
:102A8800F76E0800F550230AD8B4FDEC2CF0F0904E
:102A980028D0F2A426D0F2940001C74BC82BD59EAB
:102AA800800E01EC2FF0CB0E406EFF0E416EC7C0BA
:102AB80042F0C8C043F083EC0BF00001C8BF08D057
:102AC8000001C8510EE1B40E0001C75DD8B009D0AD
:102AD800170ED56EDA0ED76E100ED66ED550800949
:102AE800D56E7AC0F5FF79C0F8FF78C0F7FF77C0D8
:102AF800F6FF76C0F4FF75C0F3FF74C0DAFF73C049
:102B0800D9FF72C0E2FF71C0E1FF70C0EAFF6FC079
:102B1800E9FF6EC0FBFF6DC0FAFF7D921100010155
:102B2800196F010119AF2AD10101196D010119515C
:102B3800800A120FD8A0ACD0000E0101036F030E5B
:102B4800026F000E0001C06F0A0EBF6F000E000179
:102B5800BA6F640EB96F010119510001B76FB86BF4
:102B6800B7BFB807E0EC28F0B7C0BDF0B8C0BEF0FA
:102B7800CCEC27F0090E0001BD250101006F000E05
:102B88000001BE210101016FD7EC2DF0A50E010156
:102B98000025F66EFE0E01010121F76E0900F5CF42
:102BA80007F10900F5CF08F10A00F5CF09F1000E89
:102BB8000001C06F640EBF6F010119510001BD6FA4
:102BC800BE6BBDBFBE07CCEC27F0120E0001BD25C1
:102BD8000101006F000E0001BE210101016F000E0E
:102BE8000101036F030E026FD7EC2DF0A50E010152
:102BF8000025F66EFE0E01010121F76E0900F5CFE2
:102C080004F10900F5CF05F10A00F5CF06F1F8EC5B
:102C18001FF004C116F105C117F106C118F116C15C
:102C280004F117C105F118C106F1000E0101036F87
:102C3800030E026F000E0001BA6F0A0EB96F010190
:102C480019510001B76FB86BB7BFB807E0EC28F0AF
:102C5800B7C000F1B8C001F1D7EC2DF0A50E010105
:102C68000025F66EFE0E01010121F76E0900F5CF71
:102C780007F10900F5CF08F10A00F5CF09F1F8ECE2
:102C88001FF004C113F105C114F106C115F11200BA
:102C980001011951800A750FD8A05DD0000E0001FE
:102CA800C06F0A0EBF6F010119510001BD6FBE6BE5
:102CB800BDBFBE07CCEC27F0090E0001BD25010100
:102CC800006F000E0001BE210101016F000E01011D
:102CD800036F030E026FD7EC2DF0A50E010100253E
:102CE800F66EFE0E01010121F76E0900F5CF04F121
:102CF8000900F5CF05F10A00F5CF06F1000E010134
:102D0800036F030E026F000E0001BA6F0A0EB96F4F
:102D1800010119510001B76FB86BB7BFB807E0ECF4
:102D280028F0B7C000F1B8C001F1D7EC2DF0A50E1E
:102D380001010025F66EFE0E01010121F76E090062
:102D4800F5CF07F10900F5CF08F10A00F5CF09F131
:102D5800F8EC1FF096D701011951030DA50EF324C5
:102D6800F66EFE0EF420F76E0900F5CF13F1090098
:102D7800F5CF14F10A00F5CF15F112000101195130
:102D8800800A120FD8A0ACD0000E0101036F030E09
:102D9800026F000E0001C06F0A0EBF6F000E000127
:102DA800BA6F640EB96F010119510001B76FB86BA2
:102DB800B7BFB807E0EC28F0B7C0BDF0B8C0BEF0A8
:102DC800CCEC27F0090E0001BD250101006F000EB3
:102DD8000001BE210101016FD7EC2DF0CC0E0101DD
:102DE8000025F66EFE0E01010121F76E0900F5CFF0
:102DF80007F10900F5CF08F10A00F5CF09F1000E37
:102E08000001C06F640EBF6F010119510001BD6F51
:102E1800BE6BBDBFBE07CCEC27F0120E0001BD256E
:102E28000101006F000E0001BE210101016F000EBB
:102E38000101036F030E026FD7EC2DF0CC0E0101D8
:102E48000025F66EFE0E01010121F76E0900F5CF8F
:102E580004F10900F5CF05F10A00F5CF06F1F8EC09
:102E68001FF004C116F105C117F106C118F116C10A
:102E780004F117C105F118C106F1000E0101036F35
:102E8800030E026F000E0001BA6F0A0EB96F01013E
:102E980019510001B76FB86BB7BFB807E0EC28F05D
:102EA800B7C000F1B8C001F1D7EC2DF0CC0E01018C
:102EB8000025F66EFE0E01010121F76E0900F5CF1F
:102EC80007F10900F5CF08F10A00F5CF09F1F8EC90
:102ED8001FF004C113F105C114F106C115F1120068
:102EE80001011951800A750FD8A05DD0000E0001AC
:102EF800C06F0A0EBF6F010119510001BD6FBE6B93
:102F0800BDBFBE07CCEC27F0090E0001BD250101AD
:102F1800006F000E0001BE210101016F000E0101CA
:102F2800036F030E026FD7EC2DF0CC0E01010025C4
:102F3800F66EFE0E01010121F76E0900F5CF04F1CE
:102F48000900F5CF05F10A00F5CF06F1000E0101E1
:102F5800036F030E026F000E0001BA6F0A0EB96FFD
:102F6800010119510001B76FB86BB7BFB807E0ECA2
:102F780028F0B7C000F1B8C001F1D7EC2DF0CC0EA5
:102F880001010025F66EFE0E01010121F76E090010
:102F9800F5CF07F10900F5CF08F10A00F5CF09F1DF
:102FA800F8EC1FF096D701011951030DCC0EF3244C
:102FB800F66EFE0EF420F76E0900F5CF13F1090046
:102FC800F5CF14F10A00F5CF15F112002A6E2AAEDA
:102FD800FBD02A6C2A50800A120FD8A091D0000E7C
:102FE800126E030E116E000E0A6E0A0E096E000EA6
:102FF800046E640E036E2A50016E026A01BE020658
:1030080087EC2AF001C007F002C008F0C6EC29F0EE
:10301800090E07240F6E000E0820106E7AEC2EF0B1
:10302800A50E0F24F66EFE0E1020F76E0900F5CFE0
:1030380018F00900F5CF19F00A00F5CF1AF0000EC4
:103048000A6E640E096E2A50076E086A07BE0806E3
:10305800C6EC29F0120E07240F6E000E0820106E21
:10306800000E126E030E116E7AEC2EF0A50E0F24D0
:10307800F66EFE0E1020F76E0900F5CF15F0090068
:10308800F5CF16F00A00F5CF17F03BEC25F015C088
:1030980027F016C028F017C029F027C015F028C05F
:1030A80016F029C017F0000E126E030E116E000EF6
:1030B800046E0A0E036E2A50016E026A01BE0206F1
:1030C80087EC2AF001C00FF002C010F07AEC2EF065
:1030D800A50E0F24F66EFE0E1020F76E0900F5CF30
:1030E80018F00900F5CF19F00A00F5CF1AF03BECFB
:1030F80025F015C024F016C025F017C026F01200E0
:103108002A50800A750FD8A04DD0000E0A6E0A0EFC
:10311800096E2A50076E086A07BE0806C6EC29F031
:10312800090E07240F6E000E0820106E000E126E96
:10313800030E116E7AEC2EF0A50E0F24F66EFE0E1D
:103148001020F76E0900F5CF15F00900F5CF16F03D
:103158000A00F5CF17F0000E126E030E116E000E66
:10316800046E0A0E036E2A50016E026A01BE020640
:1031780087EC2AF001C00FF002C010F07AEC2EF0B4
:10318800A50E0F24F66EFE0E1020F76E0900F5CF7F
:1031980018F00900F5CF19F00A00F5CF1AF03BEC4A
:1031A80025F0A7D72A50030DA50EF324F66EFE0EC0
:1031B800F420F76E0900F5CF24F00900F5CF25F0CB
:1031C8000A00F5CF26F012002A50800A120FD8A064
:1031D80091D0000E126E030E116E000E0A6E0A0ECA
:1031E800096E000E046E640E036E2A50016E026AA8
:1031F80001BE020687EC2AF001C007F002C008F001
:10320800C6EC29F0090E07240F6E000E0820106E78
:103218007AEC2EF0CC0E0F24F66EFE0E1020F76E10
:103228000900F5CF18F00900F5CF19F00A00F5CF1D
:103238001AF0000E0A6E640E096E2A50076E086AAC
:1032480007BE0806C6EC29F0120E07240F6E000E02
:103258000820106E000E126E030E116E7AEC2EF01E
:10326800CC0E0F24F66EFE0E1020F76E0900F5CF77
:1032780015F00900F5CF16F00A00F5CF17F03BEC72
:1032880025F015C027F016C028F017C029F027C070
:1032980015F028C016F029C017F0000E126E030EA4
:1032A800116E000E046E0A0E036E2A50016E026A39
:1032B80001BE020687EC2AF001C00FF002C010F030
:1032C8007AEC2EF0CC0E0F24F66EFE0E1020F76E60
:1032D8000900F5CF18F00900F5CF19F00A00F5CF6D
:1032E8001AF03BEC25F015C024F016C025F017C0E5
:1032F80026F012002A50800A750FD8A04DD0000E73
:103308000A6E0A0E096E2A50076E086A07BE08067A
:10331800C6EC29F0090E07240F6E000E0820106E67
:10332800000E126E030E116E7AEC2EF0CC0E0F24E6
:10333800F66EFE0E1020F76E0900F5CF15F00900A5
:10334800F5CF16F00A00F5CF17F0000E126E030E37
:10335800116E000E046E0A0E036E2A50016E026A88
:1033680001BE020687EC2AF001C00FF002C010F07F
:103378007AEC2EF0CC0E0F24F66EFE0E1020F76EAF
:103388000900F5CF18F00900F5CF19F00A00F5CFBC
:103398001AF03BEC25F0A7D72A50030DCC0EF324E6
:1033A800F66EFE0EF420F76E0900F5CF24F0090042
:1033B800F5CF25F00A00F5CF26F0120001011C6FA9
:1033C8006D0E01011C65BAD0000E0101036F030EDA
:1033D800026F000E0001C06F0A0EBF6F000E0001E1
:1033E800BA6F640EB96F1CC1B7F00001B86BE0EC9E
:1033F80028F0B7C0BDF0B8C0BEF0CCEC27F0090E7D
:103408000001BD250101006F000E0001BE21010170
:10341800016FD7EC2DF0A50E01010025F66EFE0E0A
:1034280001010121F76E0900F5CF07F10900F5CF79
:1034380008F10A00F5CF09F1000E0001C06F640E13
:10344800BF6F1CC1BDF00001BE6BCCEC27F0120EA3
:103458000001BD250101006F000E0001BE21010120
:10346800016F000E0101036F030E026FD7EC2DF000
:10347800A50E01010025F66EFE0E01010121F76E71
:103488000900F5CF04F10900F5CF05F10A00F5CFE1
:1034980006F1F8EC1FF004C119F105C11AF106C1D3
:1034A8001BF1000E0101036F030E026F000E0001F5
:1034B800BA6F0A0EB96F1CC1B7F00001B86BE0EC27
:1034C80028F0B7C000F1B8C001F1D7EC2DF0A50E77
:1034D80001010025F66EFE0E01010121F76E0900BB
:1034E800F5CF07F10900F5CF08F10A00F5CF09F18A
:1034F80019C104F11AC105F11BC106F1F8EC1FF05E
:1035080004C116F105C117F106C118F116C104F17D
:1035180017C105F118C106F1000E0101076F000E71
:103528000101086F3F0E0101096FF8EC1FF004C19B
:1035380013F105C114F106C115F112000A0E0101BB
:103548001C656ED0000E0101036F030E026F000EA2
:103558000001BA6F0A0EB96F1CC1B7F00001B86B51
:10356800E0EC28F0B7C000F1B8C001F1D7EC2DF0BD
:10357800A50E01010025F66EFE0E01010121F76E70
:103588000900F5CF07F10900F5CF08F10A00F5CFDA
:1035980009F1000E0001C06F0A0EBF6F1CC1BDF01B
:1035A8000001BE6BCCEC27F0090E0001BD2501011E
:1035B800006F000E0001BE210101016F000E010124
:1035C800036F030E026FD7EC2DF0A50E0101002545
:1035D800F66EFE0E01010121F76E0900F5CF04F128
:1035E8000900F5CF05F10A00F5CF06F1F8EC1FF058
:1035F80004C119F105C11AF106C11BF119C104F181
:103608001AC105F11BC106F1000E0101076F000E7A
:103618000101086F3F0E0101096FF8EC1FF087D711
:1036280001011C51030DA50EF324F66EFE0EF420C5
:10363800F76E0900F5CF04F10900F5CF05F10A008E
:10364800F5CF06F1000E0101076F000E0101086FAA
:103658003F0E0101096FF8EC1FF004C113F105C119
:1036680014F106C115F112001FC123F10101246BE9
:10367800256B01011E350101233701E32481010176
:1036880023510101286F22C123F10101246B256B0D
:10369800010121350101233701E32481010123516F
:1036A8000101276F010128510101D8B411D001018E
:1036B80027510101285DD8B012D001012851000816
:1036C800010127250101236F180E0101236507D089
:1036D80020C11DF121C11EF122C11FF112000101FB
:1036E80027510101D8B411D0010128510101275DEA
:1036F800D8B012D001012751000801012825010185
:10370800236F180E0101236507D01DC11DF11EC1CD
:103718001EF11FC11FF11200060E0101266F0101E3
:103728001FAF02D00101268F010122AF02D0010193
:10373800268D01011E8FFF0E01011D17FF0E0101CD
:103748001E17000E01011F170101218FFF0E010135
:103758002017FF0E01012117000E01012217010198
:1037680027510101285DD8B025D00101D890203714
:1037780021372237010127070101285101012719A3
:10378800D8B411D00101260726C123F1070E010183
:103798002317D8B408D0E9D70101D8901F331E33B6
:1037A8001D330101282B0101275101012819D8B423
:1037B8002BD0F2D7010128510101275DD8B024D0C0
:1037C8000101D8901D371E371F3701012807010155
:1037D800285101012719D8B411D00101260726C1A3
:1037E80023F1070E01012317D8B408D0E9D7010146
:1037F800D8902233213320330101272B010127518F
:1038080001012819D8A4F3D7010126AF12D0FF0E61
:1038180001011D1BFF0E01011E1BFF0E01011F1BD5
:10382800010E01011D27000E01011E23000E0101DA
:103838001F23010126AD12D0FF0E0101201BFF0E30
:103848000101211BFF0E0101221B010E010120278E
:10385800000E01012123000E01012223000E0101A7
:10386800266F01011D510101202701011E5101018F
:10387800212301011F5101012223010122AF15D08B
:10388800FF0E0101201BFF0E0101211BFF0E01018C
:10389800221B010E01012027000E01012123000E29
:1038A80001012223010E0101266F20C1B7F021C1B9
:1038B800B8F022C1B9F028C1BAF026C1BBF0BAEC01
:1038C80023F0B7C01DF1B8C01EF1B9C01FF1120036
:1038D8002D6E6D0E2D649FD0000E126E030E116EAC
:1038E800000E0A6E0A0E096E000E046E640E036E58
:1038F8002DC001F0026A87EC2AF001C007F002C06F
:1039080008F0C6EC29F0090E07240F6E000E0820F7
:10391800106E7AEC2EF0A50E0F24F66EFE0E102017
:10392800F76E0900F5CF18F00900F5CF19F00A0075
:10393800F5CF1AF0000E0A6E640E096E2DC007F05E
:10394800086AC6EC29F0120E07240F6E000E082034
:10395800106E000E126E030E116E7AEC2EF0A50E8C
:103968000F24F66EFE0E1020F76E0900F5CF15F045
:103978000900F5CF16F00A00F5CF17F03BEC25F05B
:1039880015C02AF016C02BF017C02CF0000E126ECE
:10399800030E116E000E046E0A0E036E2DC001F0A8
:1039A800026A87EC2AF001C00FF002C010F07AEC2E
:1039B8002EF0A50E0F24F66EFE0E1020F76E0900ED
:1039C800F5CF18F00900F5CF19F00A00F5CF1AF075
:1039D8002AC015F02BC016F02CC017F03BEC25F0D0
:1039E80015C027F016C028F017C029F027C015F019
:1039F80028C016F029C017F0000E186E000E196EB8
:103A08003F0E1A6E3BEC25F015C024F016C025F0C9
:103A180017C026F012000A0E2D645DD0000E126E3B
:103A2800030E116E000E046E0A0E036E2DC001F017
:103A3800026A87EC2AF001C00FF002C010F07AEC9D
:103A48002EF0A50E0F24F66EFE0E1020F76E09005C
:103A5800F5CF18F00900F5CF19F00A00F5CF1AF0E4
:103A6800000E0A6E0A0E096E2DC007F0086AC6EC31
:103A780029F0090E07240F6E000E0820106E000EA4
:103A8800126E030E116E7AEC2EF0A50E0F24F66E50
:103A9800FE0E1020F76E0900F5CF15F00900F5CFDE
:103AA80016F00A00F5CF17F03BEC25F015C02AF008
:103AB80016C02BF017C02CF02AC015F02BC016F03A
:103AC8002CC017F0000E186E000E196E3F0E1A6EFD
:103AD8003BEC25F099D72D50030DA50EF324F66E77
:103AE800FE0EF420F76E0900F5CF15F00900F5CFAA
:103AF80016F00A00F5CF17F0000E186E000E196EBA
:103B08003F0E1A6E3BEC25F015C024F016C025F0C8
:103B180017C026F0120030C034F0356A366A2F34E8
:103B2800343601E335803450396E33C034F0356AA9
:103B3800366A3234343601E335803450386E3950C1
:103B4800D8B40BD03850395CD8B00ED039500008F2
:103B58003824346E180E346407D031C02EF032C0C9
:103B68002FF033C030F012003850D8B40BD0395091
:103B7800385CD8B00ED0385000083924346E180E8E
:103B8800346407D02EC02EF02FC02FF030C030F094
:103B98001200060E376E30BE378E33BE378C2F8E2E
:103BA800FF0E2E16FF0E2F16000E3016328EFF0E49
:103BB8003116FF0E3216000E33163850395CD8B065
:103BC8001BD0D8903136323633363806395038184B
:103BD800D8B40DD0370637C034F0070E3416D8B431
:103BE80006D0EFD7D89030322F322E32392A3850BB
:103BF8003918D8B41FD0F6D73950385CD8B01AD095
:103C0800D8902E362F363036390639503818D8B471
:103C18000DD0370637C034F0070E3416D8B406D0A6
:103C2800EFD7D890333232323132382A38503918F7
:103C3800D8A4F7D737AE0CD0FF0E2E1AFF0E2F1AC6
:103C4800FF0E301A010E2E26000E2F22000E3022F3
:103C580037AC0CD0FF0E311AFF0E321AFF0E331A92
:103C6800010E3126000E3222000E3322000E376E6E
:103C78002E5031262F5032223050332233AE0ED000
:103C8800FF0E311AFF0E321AFF0E331A010E3126BB
:103C9800000E3222000E3322010E376E31C001F0C1
:103CA80032C002F033C003F039C004F037C005F069
:103CB80089EC28F001C02EF002C02FF003C030F0CC
:103CC8001200B9C0BDF00001BE6BBF6B0001B83572
:103CD8000001BD3701E3BE810001BD510001C56F80
:103CE8000001C551D8A40AD0000E0001B76F000E1C
:103CF800B86F000EB96F000EBA6F1200BCC0BDF0ED
:103D08000001BE6BBF6B0001BB350001BD3701E38D
:103D1800BE810001BD510001C46F0001C451D8A487
:103D28000AD0000E0001B76F000EB86F000EB96F11
:103D3800000EBA6F12000001B88FFF0E0001B7170E
:103D4800FF0E0001B817000E0001B9170001BB8F64
:103D5800FF0E0001BA17FF0E0001BB17000E00018D
:103D6800BC17000E0001C06F000EC16F000EC26FBD
:103D7800000EC36F7F0E0001C55F0001C451980F8C
:103D88000001C55F180E0001C46F0001D890C0374C
:103D9800C137C237C3370001BA510001B75D00010E
:103DA800BB510001B8590001BC510001B959D8A054
:103DB8000ED00001BA510001B75F0001BB510001EC
:103DC800B85B0001BC510001B95B0001C081000172
:103DD800D890B737B837B9370001C42FD6D7000104
:103DE800C5AF1AD00001C551800A970FD8B00AD0C4
:103DF800000E0001B76F000EB86F000EB96F000E0D
:103E0800BA6F12000001D890C333C233C133C03334
:103E18000001C53FF7D71BD0170E0001C56512D0AA
:103E2800000E0001B76F000EB86F000EB96F000EDC
:103E3800BA6F12000001D890C037C137C237C337F4
:103E48000001C5070001C5510001D8A4F3D7C0C0BF
:103E5800B7F0C1C0B8F0C2C0B9F0C3C0BAF0120020
:103E68000001B935BA350001C26F0001C251D8A4AA
:103E78000AD0000E0001B76F000EB86F000EB96FC0
:103E8800000EBA6F12000001BC35BD350001C16FCC
:103E98000001C151D8A40AD0000E0001B76F000E6E
:103EA800B86F000EB96F000EBA6F12000001B98F1B
:103EB800FF0E0001B717FF0EB817FF0EB917000E57
:103EC800BA170001BC8FFF0E0001BA17FF0EBB170F
:103ED800FF0EBC17000EBD17000E0001BD6F000ECF
:103EE800BE6F000EBF6F000EC06F7F0E0001C25F75
:103EF8000001C151A00F0001C25F200E0001C16F77
:103F08000001D890BD37BE37BF37C0370001BA515E
:103F18000001B75D0001BB510001B8590001BC5157
:103F28000001B9590001BD510001BA59D8A012D0F9
:103F38000001BA510001B75F0001BB510001B85B35
:103F48000001BC510001B95B0001BD510001BA5B21
:103F58000001BD810001D890B737B837B937BA37F3
:103F68000001C12FCDD70001C2AF1AD00001C25144
:103F7800800A9F0FD8B00AD0000E0001B76F000E5C
:103F8800B86F000EB96F000EBA6F12000001D8901A
:103F9800C033BF33BE33BD330001C23FF7D71BD098
:103FA8001F0E0001C26512D0000E0001B76F000E8F
:103FB800B86F000EB96F000EBA6F12000001D890EA
:103FC800BD37BE37BF37C0370001C2070001C25135
:103FD8000001D8A4F3D7BDC0B7F0BEC0B8F0BFC0C9
:103FE800B9F0C0C0BAF0120006C10AF101010B6BAA
:103FF8000C6B0101053501010A3701E30B81010151
:104008000A5101010D6F01010D51D8A40AD0000E0B
:104018000101046F000E0101056F000E0101066F1A
:10402800120009C10AF101010B6B0C6B0101083583
:1040380001010A3701E30B8101010A510101126FE5
:1040480001011251D8A40AD0000E0101046F000E1C
:104058000101056F000E0101066F120001011251E6
:104068007B0F01010D2706C112F101010951010160
:10407800121B800E010112170101058F0101088F23
:10408800FF0E01010717FF0E01010817000E0101BD
:104098000917000E01010E6F000E01010F6F000ECF
:1040A8000101106F070E0101116F010104A10CD06D
:1040B8000101075101010E270101085101010F23D8
:1040C80001010951010110230101D890063305337C
:1040D80004330101D8900737083709370101112F38
:1040E800E4D7090E0101116F010104A10CD00101EF
:1040F800075101010E270101085101010F23010198
:104108000951010110230101D89006330533043306
:104118000101D89010330F330E330101112FE4D76A
:104128000EC1B7F00FC1B8F010C1B9F00DC1BAF0A7
:1041380012C1BBF0BAEC23F0B7C004F1B8C005F166
:10414800B9C006F1120005C109F101010A6B0B6B38
:10415800010104350101093701E30A81010109510F
:104168000101106F01011051D8A40AD0000E0101FD
:10417800036F000E0101046F000E0101056F1200AC
:1041880008C109F101010A6B0B6B01010735010137
:10419800093701E30A81010109510101116F010188
:1041A8001151D8A40AD0000E0101036F000E0101BD
:1041B800046F000E0101056F1200000E01010D6F62
:1041C800000E01010E6F000E01010F6F0101115168
:1041D800890F0101105F05C111F1010108510101A9
:1041E800111B800E010111170101048FFF0E01013F
:1041F8000317FF0E01010417000E01010517010145
:10420800078FFF0E01010617FF0E01010717000EA9
:1042180001010817180E01010C6F0101D8900D3724
:104228000E370F37010106510101035D01010751E6
:10423800010104590101085101010559D8A00ED006
:10424800010106510101035F010107510101045BEE
:10425800010108510101055B01010D810101D8909F
:1042680003370437053701010C2FD7D70DC1B7F035
:104278000EC1B8F00FC1B9F010C1BAF011C1BBF04E
:10428800BAEC23F0B7C003F1B8C004F1B9C005F126
:1042980012001CC11EF101011F6B206B01011B35AF
:1042A80001011E3701E31F8101011E510101286F21
:1042B80001012851D8A40AD0000E01011A6F000E7E
:1042C8001B6F000E1C6F000E1D6F1200170E0101F0
:1042D8001E6F1AC11FF11BC120F11CC121F1010180
:1042E8001E290101226F05D00101D8902133203306
:1042F8001F330101222FF8D701011F510101236F3C
:1043080001011B8FFF0E01011A17FF0E01011B1778
:10431800000E01011C1701011A510101246F01014E
:104328001B510101256F01011C510101266F01017B
:10433800276B8E0E0101285F010128AF1AD00101F9
:104348002851800A8F0FD8B00AD0000E01011A6FC9
:10435800000E1B6F000E1C6F000E1D6F1200010176
:10436800D89027332633253324330101283FF7D744
:104378001BD0170E0101286512D0000E01011A6F1B
:10438800000E1B6F000E1C6F000E1D6F1200010146
:10439800D890243725372637273701012807010108
:1043A80028510101D8A4F3D7010123510101D8B440
:1043B80009D00101271F261F251F246D000E252364
:1043C8002623272324C11AF125C11BF126C11CF17C
:1043D80027C11DF112008D80060EE82EFED700D0F1
:1043E8008D90000ECF6E000ECE6ECD8025D0CF50B2
:1043F80001012C6F2B6BCE5001012D6F2E6B01012B
:104408002B5101012D1101012F6F01012C510101C7
:104418002E110101306F010130BF0ED00101305162
:1044280005E1330E01012F5DD8A006D0000E010171
:104438002A6F000E296F120084A2D9D7CD90000EE2
:10444800CF6E000ECE6ECD8084B2FED7CD90CF5009
:1044580001012C6F2B6BCE5001012D6F2E6B0101CA
:104468002B5101012D1101012F6F01012C51010167
:104478002E110101306F480E0101066F6B0E01010C
:10448800076F420E0101086F2FC100F130C101F121
:10449800DBEC2CF000C103F101C104F102C105F10C
:1044A800A7EC20F003C11AF104C11BF105C11CF1EE
:1044B8004DEC21F01AC12FF11BC130F1010E0101A1
:1044C8002F2501012F6F000E010130210101306FEE
:1044D800010130BF18D00101305105E1020E010180
:1044E8002F5DD8A010D0010130BF08D00101305194
:1044F8000AE1060E01012F5DD8B005D02FC129F1C0
:1045080030C12AF11200000E01012A6F000E296F36
:10451800120003C007F0086A096A0234073601E38B
:10452800088007500F6E0F50D8A409D0000E016EF6
:10453800000E026E000E036E000E046E120006C01E
:1045480007F0086A096A0534073601E3088007504E
:104558000E6E0E50D8A409D0000E016E000E026E29
:10456800000E036E000E046E1200028EFF0E01167E
:10457800FF0E0216000E0316058EFF0E0416FF0E20
:104588000516000E0616000E0A6E000E0B6E000EC3
:104598000C6E000E0D6E7F0E0F5E0E50980F0F5EA4
:1045A800180E0E6ED8900A360B360C360D3604509F
:1045B800015C0550025806500358D8A007D0045093
:1045C800015E0550025A0650035A0A80D8900136F7
:1045D800023603360E2EE6D70FAE16D00F50800ADD
:1045E800970FD8B009D0000E016E000E026E000EB3
:1045F800036E000E046E1200D8900D320C320B328E
:104608000A320F3EF9D715D0170E0F640FD0000EDF
:10461800016E000E026E000E036E000E046E120094
:10462800D8900A360B360C360D360F060F50D8A424
:10463800F7D70AC001F00BC002F00CC003F00DC0A0
:1046480004F01200033404340C6E0C50D8A409D0C2
:10465800000E016E000E026E000E036E000E046E58
:104668001200063407340B6E0B50D8A409D0000E84
:10467800016E000E026E000E036E000E046E120034
:10468800038EFF0E0116FF0E0216FF0E0316000E14
:104698000416068EFF0E0416FF0E0516FF0E0616EC
:1046A800000E0716000E076E000E086E000E096E4B
:1046B800000E0A6E7F0E0C5E0B50A00F0C5E200ED3
:1046C8000B6ED8900736083609360A360450015C56
:1046D800055002580650035807500458D8A009D06E
:1046E8000450015E0550025A0650035A0750045AF6
:1046F8000780D89001360236033604360B2EE1D7F0
:104708000CAE16D00C50800A9F0FD8B009D0000EFE
:10471800016E000E026E000E036E000E046E120093
:10472800D8900A320932083207320C3EF9D715D030
:104738001F0E0C640FD0000E016E000E026E000EEC
:10474800036E000E046E1200D8900736083609363C
:104758000A360C060C50D8A4F7D707C001F008C0D9
:1047680002F009C003F00AC004F012000001BA51B7
:104778000001D8B408D00001B7510001B8110001F8
:10478800B911D8A411D0000E0001B76F000E0001B6
:10479800B86F000E0001B96F12000001BA2B0001BA
:1047A800D890B933B833B733000E0001B7150001FC
:1047B800BC6F000E0001B8150001BD6FFE0E0001B0
:1047C800B9150001BE6F0001BC510001BD11000107
:1047D800BE11D8B411D0E1D70001BA2B010E0001E7
:1047E800B727000E0001B823000E0001B92300010D
:1047F800D890B933B833B733000E0001B7150001AC
:10480800BC6F000E0001B8150001BD6FFF0E00015E
:10481800B9150001BE6F0001BC510001BD110001B6
:10482800BE11D8B408D0D8D70001BA070001D89073
:10483800B737B837B9370001B8BF04D0020E000146
:10484800BA61F2D70001BAB102D00001B89F0001E5
:10485800D890BA330001BA510001B9130001BB5115
:104868000001D8B402D00001B98FB7C0B7F0B8C002
:10487800B8F0B9C0B9F0120010EC2FF0000E00012A
:10488800B96FD00EB86F07EC2FF0000E0001B96FAA
:10489800000EB86F07EC2FF00CEC2FF010EC2FF097
:1048A800000E0001B96FD10EB86F07EC2FF0000EA3
:1048B8000101606F050E0101606501D010D0010192
:1048C8006051010DB30EF324D96E010EF420DA6E97
:1048D800010E24EC2EF0DF6E0101602BEBD7000EE9
:1048E80024EC2EF00101B96F0CEC2FF0C00EF3ECA4
:1048F8002EF0870E01012F6FFF0E0101306FB8C136
:1049080031F10101326BB7C133F10101346B09ECAC
:1049180000F0780E01012F6FFF0E0101306FB5C155
:1049280031F10101326BB4C133F10101346BB3C110
:1049380035F10101366B09EC00F0000E01015F6FE3
:10494800000E5E6F01015FBF08D001015F5112E1E7
:10495800640E01015E5DD8B012001A0E01015D6F90
:10496800F80EE82EFED75D2FFCD700F001015E4B54
:104978005F2BE8D712008D80060EE82EFED700D0F8
:104988008D90000ECF6E000ECE6ECD8019D0CF5018
:10499800366E356ACE50376E386A35503710396EF4
:1049A800365038103A6E3ABE0BD03A5004E1330E06
:1049B800395CD8A005D0000E346E000E336E12009C
:1049C80084A2E5D7CD90000ECF6E000ECE6ECD80BE
:1049D80084B2FED7CD90CF50366E356ACE50376E42
:1049E800386A35503710396E365038103A6E480EDE
:1049F800166E6B0E176E420E186E39C00FF03AC065
:104A080010F0BBEC2DF00FC013F010C014F011C063
:104A180015F02FEC26F013C024F014C025F015C0B3
:104A280026F0B5EC25F024C039F025C03AF0010E87
:104A38003924396E000E3A203A6E3ABE13D03A50F5
:104A480004E1020E395CD8A00DD03ABE06D03A5027
:104A580009E1060E395CD8B005D039C033F03AC048
:104A680034F01200000E346E000E336E120017C0C0
:104A78001BF01C6A1D6A16341B3601E31C801B5090
:104A88001E6E1E50D8A407D0000E156E000E166EAE
:104A9800000E176E12001AC01BF01C6A1D6A19342A
:104AA8001B3601E31C801B50236E2350D8A407D06B
:104AB800000E156E000E166E000E176E12002350B3
:104AC8007B0F1E2617C023F01A50231A800E2316B8
:104AD800168E198EFF0E1816FF0E1916000E1A16CE
:104AE800000E1F6E000E206E000E216E070E226E45
:104AF80015A006D018501F26195020221A5021221E
:104B0800D890173216321532D890183619361A3608
:104B1800222EEED7090E226E15A006D018501F2699
:104B2800195020221A502122D890173216321532E5
:104B3800D890213220321F32222EEED71FC001F02A
:104B480020C002F021C003F01EC004F023C005F00D
:104B580089EC28F001C015F002C016F003C017F068
:104B6800120026C028F0296A2A6A2534283601E36B
:104B780029802850326E3250D8A409D0000E246EF5
:104B8800000E256E000E266E000E276E1200170E00
:104B9800286E24C029F025C02AF026C02BF028282A
:104BA8002C6E04D0D8902B322A3229322C2EFAD7E8
:104BB80029502D6E258EFF0E2416FF0E2516000E89
:104BC800261624502E6E25502F6E2650306E316AD0
:104BD8008E0E325E32AE16D03250800A8F0FD8B0A9
:104BE80009D0000E246E000E256E000E266E000EF3
:104BF800276E1200D890313230322F322E32323EA8
:104C0800F9D715D0170E32640FD0000E246E000E9F
:104C1800256E000E266E000E276E1200D8902E36D6
:104C28002F363036313632063250D8A4F7D72D50C9
:104C3800D8B408D0311E301E2F1E2E6C000E2F2225
:104C4800302231222EC024F02FC025F030C026F0AB
:104C580031C027F0120015C019F01A6A1B6A143403
:104C6800193601E31A801950206E2050D8A407D0B5
:104C7800000E136E000E146E000E156E120018C092
:104C880019F01A6A1B6A1734193601E31A80195089
:104C9800216E2150D8A407D0000E136E000E146E9A
:104CA800000E156E1200000E1D6E000E1E6E000E18
:104CB8001F6E2150890F205E15C021F01850211A4F
:104CC800800E2116148EFF0E1316FF0E1416000EFA
:104CD8001516178EFF0E1616FF0E1716000E18164D
:104CE800180E1C6ED8901D361E361F361650135CD3
:104CF8001750145818501558D8A007D01650135EDE
:104D08001750145A1850155A1D80D8901336143657
:104D180015361C2EE7D71DC001F01EC002F01FC0BB
:104D280003F020C004F021C005F089EC28F001C090
:104D380013F002C014F003C015F0120001015F5116
:104D480001015D250101676F0101605101015E21CB
:104D58000101686F01016151010167270101625179
:104D68000101682301016351010167250101696F90
:104D7800010164510101682101016A6F800EF3ECA1
:104D88002EF0570E01012F6FFF0E0101306F69C120
:104D980031F16AC132F165C133F166C134F109EC10
:104DA80000F0C00EF3EC2EF0310E01012F6FFF0E54
:104DB8000101306F5DC131F15EC132F15FC133F184
:104DC80060C134F161C135F162C136F163C137F1B7
:104DD80064C138F109EC00F081A2FED781380F0BCD
:104DE8000F0B01016B6F81B2FED701016B51010DF1
:104DF800130EF324F66EFF0EF420F76E0800F5503C
:104E0800430AD8B41200E8D70001B9AF1DD0B7C023
:104E1800BDF0B8C0BEF0B9C0BFF00001BD1FBE1FD5
:104E2800BF1FBD2B000EBE23BF23000E0001BD25F2
:104E38000001B76F000E0001BE210001B86F800E9F
:104E48000001BF210001B96F0001BCAF1DD0BAC07D
:104E5800BDF0BBC0BEF0BCC0BFF00001BD1FBE1F8F
:104E6800BF1FBD2B000EBE23BF23000E0001BD25B2
:104E78000001BA6F000E0001BE210001BB6F800E59
:104E88000001BF210001BC6F000E0001B71B000E1E
:104E98000001B81B800E0001B91B000E0001BA1BEF
:104EA800000E0001BB1B800E0001BC1B0001BA51A3
:104EB8000001B75D0001BB510001B8590001BC51A8
:104EC8000001B959D8B002D0D8901200D880120089
:104ED80092689368000E946E000E956E020E966EA0
:104EE800100ECD6E800ED56E000EC26E0D0EC16E08
:104EF800F0868B808B9E14EC2FF095EC2CF0100E26
:104F08000101006F270E016F000E026F000E036F84
:104F180026EC2BF0F28E800EF3EC2EF0680E0101D9
:104F28002F6FFF0E0101306F09EC00F040EC24F008
:104F38000101C0050101C111D8A407D03DEC06F05C
:104F4800000E0101C16F000EC06F0101BE05010115
:104F5800BF11D8A4E0D7000E0001B86F010EB76FDB
:104F6800C3EC2EF0B7C0B1F1B8C0B2F1D10E010157
:104F78002F6FFF0E0101306FB1C131F1B2C132F1B3
:104F880009EC00F0000E0101BF6F000EBE6FC3D721
:104F9800000E0001C26F0001C0AF08D00001BF6D54
:104FA800C01FD8B0C02B010E0001C26F0001BEAFF8
:104FB80008D00001BD6DBE1FD8B0BE2B010E000188
:104FC800C21B000E0001C46F000EC36F0001BF5169
:104FD8000001C011D8B42CD0010E0001C16F06D059
:104FE8000001D890BF37C0370001C12B0001C0AF06
:104FF800F7D70001D890C337C4370001BF5100016B
:10500800BD5D0001C0510001BE59D8A00AD0000101
:10501800BF510001BD5F0001C0510001BE5B00012E
:10502800C3810001D890C033BF330001C12FE1D73D
:105038000001C2510001D8B405D00001C36DC41FDE
:10504800D8B0C42BC3C0BDF0C4C0BEF01200000E5F
:105058000001BF6F000EC06F000EC16F000EC26F5F
:105068000001BB510001BC110001BD110001BE11BE
:10507800D8B442D0010E0001C36F08D00001D89007
:10508800BB37BC37BD37BE370001C32B0001BEAFED
:10509800F5D70001D890BF37C037C137C2370001F4
:1050A800BB510001B75D0001BC510001B8590001B6
:1050B800BD510001B9590001BE510001BA59D8A02B
:1050C80012D00001BB510001B75F0001BC510001C3
:1050D800B85B0001BD510001B95B0001BE51000180
:1050E800BA5B0001BF810001D890BE33BD33BC3329
:1050F800BB330001C32FCDD7BFC0B7F0C0C0B8F0D5
:10510800C1C0B9F0C2C0BAF012000450D8B405D07A
:10511800015002100310D8A40CD0000E016E000E2E
:10512800026E000E036E1200042AD8900332023277
:105138000132000E0114066E000E0214076EFE0EF8
:105148000314086E065007100810D8B40CD0ECD71A
:10515800042A010E0126000E0222000E0322D89016
:10516800033202320132000E0114066E000E0214E0
:10517800076EFF0E0314086E065007100810D8B407
:1051880006D0E6D70406D89001360236033602BEAA
:1051980003D0020E0460F6D704A0029ED890043211
:1051A800045003120550D8A4038E01C001F002C0B8
:1051B80002F003C003F01200000E0001BC6F0001F2
:1051C800B8AF08D00001B76DB81FD8B0B82B010E22
:1051D8000001BC6F0001BAAF05D00001B96DBA1F5C
:1051E800D8B0BA2B0001B9510001BA11D8B426D0F1
:1051F800010E0001BB6F06D00001D890B937BA374D
:105208000001BB2B0001BAAFF7D70001B95100016B
:10521800B75D0001BA510001B859D8A008D0000103
:10522800B9510001B75F0001BA510001B85B000134
:10523800D890BA33B9330001BB2FE7D70001BC516E
:105248000001D8B405D00001B76DB81FD8B0B82B8D
:10525800B7C0B7F0B8C0B8F012000101045101019D
:1052680005110101061101010711D8B43AD0010E48
:105278000001C46F08D00101D890043705370637FC
:1052880007370001C42B010107AFF5D7010104510D
:105298000101005D0101055101010159010106519A
:1052A800010102590101075101010359D8A010D089
:1052B800010104510101005F010105510101015B78
:1052C800010106510101025B010107510101035B64
:1052D8000101D89007330633053304330001C42F86
:1052E800D5D700C100F101C101F102C102F103C12A
:1052F80003F1120003AE16D001C007F002C008F097
:1053080003C009F0071E081E091E072A000E0822FE
:105318000922000E0724016E000E0820026E800E7E
:105328000920036E06AE16D004C007F005C008F0C9
:1053380006C009F0071E081E091E072A000E0822CB
:105348000922000E0724046E000E0820056E800E48
:105358000920066E000E011A000E021A800E031AAA
:10536800000E041A000E051A800E061A0450015C7D
:105378000550025806500358D8B002D0D8901200F1
:10538800D8801200000E0C6E0AAE06D0096C0A1EF8
:10539800D8B00A2A010E0C6E08AE06D0076C081E9B
:1053A800D8B0082A010E0C1A000E0E6E000E0D6EF3
:1053B80009500A10D8B41CD0010E0B6E04D0D89036
:1053C80009360A360B2A0AAEFAD7D8900D360E36A9
:1053D8000950075C0A500858D8A005D00950075E44
:1053E8000A50085A0D80D8900A3209320B2EEDD790
:1053F8000C50D8B404D00D6C0E1ED8B00E2A0DC0B7
:1054080007F00EC008F01200000E096E000E0A6EBA
:10541800000E0B6E000E0C6E0550061007100810DB
:10542800D8B42AD0010E0D6E06D0D89005360636AF
:10543800073608360D2A08AEF8D7D89009360A3646
:105448000B360C360550015C0650025807500358BD
:1054580008500458D8A009D00550015E0650025AD9
:105468000750035A0850045A0980D8900832073266
:10547800063205320D2EE1D709C001F00AC002F04C
:105488000BC003F00CC004F012008E0E0101006F77
:1054980008D00001D890C233C133C033BF330101F3
:1054A800002B000E0001BF150001C36F000E0001A4
:1054B800C0150001C46F000E0001C1150001C56FC1
:1054C800FF0E0001C2150001C66F0001C3510001A3
:1054D800C4110001C5110001C611D8A4DAD7BFC094
:1054E800B7F0C0C0B8F0C1C0B9F000C1BAF0000E42
:1054F8000001BB6FBAEC23F0B7C0BFF0B8C0C0F072
:10550800B9C0C1F01200000E066E02AE06D0016CE2
:10551800021ED8B0022A010E066E04AE04D0036C37
:10552800041ED8B0042A03500410D8B418D0010EB1
:10553800056E04D0D89003360436052A04AEFAD78F
:105548000350015C04500258D8A004D00350015EF7
:105558000450025AD89004320332052EF1D706506F
:10556800D8B404D0016C021ED8B0022A01C001F0E0
:1055780002C002F012000001B86F0001B851F00B30
:105588000001B76F8C500F0B8C6E0001B7518C1057
:105598008C6E8C96100EE82EFED700D08C86100EDE
:1055A800E82EFED700D00001B839F00B0001B86F23
:1055B8000001B851F00B0001B76F8C500F0B8C6EC7
:1055C8000001B7518C108C6E8C96100EE82EFED709
:1055D80000D08C86100EE82EFED700D01200125094
:1055E800131014101510D8B424D0010E166E06D05E
:1055F800D8901236133614361536162A15AEF8D743
:1056080012500E5C13500F58145010581550115862
:10561800D8A008D012500E5E13500F5A1450105ACA
:105628001550115AD8901532143213321232162EE0
:10563800E7D70EC00EF00FC00FF010C010F011C069
:1056480011F01200000EC76E280EC66E000EC56E51
:10565800000E0001B76F120EB86F7A0EB96F000E08
:10566800BA6F00C104F101C105F102C106F103C11D
:1056780007F1020ED89001010437053706370737BE
:10568800E82EF8D704C1BBF005C1BCF006C1BDF0D7
:1056980007C1BEF02BEC28F00001B705C86E948650
:1056A800948812008E0E116E06D0D8900C320B32F0
:1056B8000A320932112A000E09140D6E000E0A145E
:1056C8000E6E000E0B140F6EFF0E0C14106E0D50A4
:1056D8000E100F101010D8A4E8D709C001F00AC0A6
:1056E80002F00BC003F011C004F0000E056E89EC47
:1056F80028F001C009F002C00AF003C00BF0120044
:10570800026E0250F00B016E8C500F0B8C6E015024
:105718008C108C6E8C96100EE82EFED700D08C86DE
:10572800100EE82EFED700D00238F00B026E0250A1
:10573800F00B016E8C500F0B8C6E01508C108C6E20
:105748008C96100EE82EFED700D08C86100EE82E10
:10575800FED700D0120014EC2FF0000E0001B96F34
:10576800000EB86F0001B9BF08D00001B95118E1A7
:10577800640E0001B85DD8B013D01A0E0001B76FDF
:10578800F80EE82EFED7B72FFCD700F00001B84B73
:10579800B92B0001B9BFF1D70001B95101E1E8D730
:1057A8008B948B82120014EC2FF0000E0001B96F5D
:1057B800000EB86F0001B9BF08D00001B95118E157
:1057C800640E0001B85DD8B013D01A0E0001B76F8F
:1057D800F80EE82EFED7B72FFCD700F00001B84B23
:1057E800B92B0001B9BFF1D70001B95101E1E8D7E0
:1057F8008B928B841200000E0001B96F000EB86FF7
:105808000001B9511DE1320E0001B85DD8B0120097
:105818008B8C060E0001B76F300EE82EFED7B72F1F
:10582800FCD700F08B9C2F0E0001B76FBF0EE82E3F
:10583800FED7B72FFCD700D00001B84BB92BE0D763
:105848001200000E0001B96F000EB86F0001B951C7
:105858001DE1640E0001B85DD8B012008B8C060EF5
:105868000001B76F300EE82EFED7B72FFCD700F037
:105878008B9C2F0E0001B76FBF0EE82EFED7B72FF7
:10588800FCD700D00001B84BB92BE0D712000101BA
:105898002C5101012D1101012E11D8B409D0000E8F
:1058A80001012C1B000E01012D1B800E01012E1B76
:1058B80029C11DF12AC11EF12BC11FF12CC120F1F4
:1058C8002DC121F12EC122F138EC1BF01DC129F1A7
:1058D8001EC12AF11FC12BF11200000E0001B96F81
:1058E800000EB86F0001B9511BE1320E0001B85D1E
:1058F800D8B012008B8C050E0001B76F7D0EE82E14
:10590800FED7B72FFCD78B9C300E0001B76F730EF4
:10591800E82EFED7B72FFCD70001B84BB92BE2D73A
:105928001200270E0001BA6FF50EE82EFED7BA2F27
:10593800FCD7330EF3EC2EF0320EF3EC2EF0280EDB
:10594800F3EC2EF00F0EF3EC2EF0060EF3EC2EF027
:10595800010EF3EC2EF0270E0001BA6FF50EE82EBB
:10596800FED7BA2FFCD71200270E046EF50EE82ECC
:10597800FED7042EFCD700F0330E01EC2FF0320EC8
:1059880001EC2FF0280E01EC2FF00F0E01EC2FF098
:10599800060E01EC2FF0010E01EC2FF0270E046E1D
:1059A800F50EE82EFED7042EFCD700F01200000EEC
:1059B8000001C56F010101AF08D00101006D011F91
:1059C800D8B0012B010E0001C56F00C1B7F001C1AD
:1059D800B8F00001B96B8E0E0001BA6FC5C0BBF0FC
:1059E800BAEC23F0B7C000F1B8C001F1B9C002F1B8
:1059F8001200000E036E000E026E035019E1320E03
:105A0800025CD8B012008B8C050E016E7D0EE82E5C
:105A1800FED7012EFCD700F08B9C300E016E730E62
:105A2800E82EFED7012EFCD700F0024A032AE5D75C
:105A380012003D503E103F10D8B406D0000E3D1A5B
:105A4800000E3E1A800E3F1A3AC02EF03BC02FF0CF
:105A58003CC030F03DC031F03EC032F03FC033F0C2
:105A68008FEC1DF02EC03AF02FC03BF030C03CF058
:105A7800120017EC2FF0000E036E000E026E03BE2C
:105A880006D0035013E1640E025CD8B00FD01A0E92
:105A9800016EF80EE82EFED7012EFCD700D0024A80
:105AA800032A03BEF4D7035001E1EDD78B948B8210
:105AB800120017EC2FF0000E036E000E026E03BEEC
:105AC80006D0035013E1640E025CD8B00FD01A0E52
:105AD800016EF80EE82EFED7012EFCD700D0024A40
